{
  "abi": [
    {
      "inputs": [],
      "stateMutability": "nonpayable",
      "type": "constructor"
    },
    {
      "anonymous": false,
      "inputs": [
        {
          "indexed": false,
          "internalType": "address",
          "name": "previousAdmin",
          "type": "address"
        },
        {
          "indexed": false,
          "internalType": "address",
          "name": "newAdmin",
          "type": "address"
        }
      ],
      "name": "AdminChanged",
      "type": "event"
    },
    {
      "anonymous": false,
      "inputs": [
        {
          "indexed": true,
          "internalType": "address",
          "name": "beacon",
          "type": "address"
        }
      ],
      "name": "BeaconUpgraded",
      "type": "event"
    },
    {
      "anonymous": false,
      "inputs": [
        {
          "indexed": true,
          "internalType": "address",
          "name": "didIdentifier",
          "type": "address"
        },
        {
          "indexed": false,
          "internalType": "bytes",
          "name": "newController",
          "type": "bytes"
        },
        {
          "indexed": false,
          "internalType": "bool",
          "name": "isNative",
          "type": "bool"
        }
      ],
      "name": "ControllerAdded",
      "type": "event"
    },
    {
      "anonymous": false,
      "inputs": [
        {
          "indexed": true,
          "internalType": "address",
          "name": "didIdentifier",
          "type": "address"
        },
        {
          "indexed": false,
          "internalType": "bytes",
          "name": "removedController",
          "type": "bytes"
        },
        {
          "indexed": false,
          "internalType": "bool",
          "name": "isNative",
          "type": "bool"
        }
      ],
      "name": "ControllerRemoved",
      "type": "event"
    },
    {
      "anonymous": false,
      "inputs": [
        {
          "indexed": false,
          "internalType": "uint8",
          "name": "version",
          "type": "uint8"
        }
      ],
      "name": "Initialized",
      "type": "event"
    },
    {
      "anonymous": false,
      "inputs": [
        {
          "indexed": true,
          "internalType": "address",
          "name": "previousOwner",
          "type": "address"
        },
        {
          "indexed": true,
          "internalType": "address",
          "name": "newOwner",
          "type": "address"
        }
      ],
      "name": "OwnershipTransferred",
      "type": "event"
    },
    {
      "anonymous": false,
      "inputs": [
        {
          "indexed": true,
          "internalType": "address",
          "name": "didIdentifier",
          "type": "address"
        },
        {
          "indexed": true,
          "internalType": "string",
          "name": "fragment",
          "type": "string"
        }
      ],
      "name": "ServiceAdded",
      "type": "event"
    },
    {
      "anonymous": false,
      "inputs": [
        {
          "indexed": true,
          "internalType": "address",
          "name": "didIdentifier",
          "type": "address"
        },
        {
          "indexed": true,
          "internalType": "string",
          "name": "fragment",
          "type": "string"
        }
      ],
      "name": "ServiceRemoved",
      "type": "event"
    },
    {
      "anonymous": false,
      "inputs": [
        {
          "indexed": true,
          "internalType": "address",
          "name": "implementation",
          "type": "address"
        }
      ],
      "name": "Upgraded",
      "type": "event"
    },
    {
      "anonymous": false,
      "inputs": [
        {
          "indexed": true,
          "internalType": "address",
          "name": "didIdentifier",
          "type": "address"
        },
        {
          "indexed": true,
          "internalType": "string",
          "name": "fragment",
          "type": "string"
        }
      ],
      "name": "VerificationMethodAdded",
      "type": "event"
    },
    {
      "anonymous": false,
      "inputs": [
        {
          "indexed": true,
          "internalType": "address",
          "name": "didIdentifier",
          "type": "address"
        },
        {
          "indexed": true,
          "internalType": "string",
          "name": "fragment",
          "type": "string"
        },
        {
          "indexed": false,
          "internalType": "uint16",
          "name": "oldFlags",
          "type": "uint16"
        },
        {
          "indexed": false,
          "internalType": "uint16",
          "name": "newFlags",
          "type": "uint16"
        }
      ],
      "name": "VerificationMethodFlagsUpdated",
      "type": "event"
    },
    {
      "anonymous": false,
      "inputs": [
        {
          "indexed": true,
          "internalType": "address",
          "name": "didIdentifier",
          "type": "address"
        },
        {
          "indexed": true,
          "internalType": "string",
          "name": "fragment",
          "type": "string"
        }
      ],
      "name": "VerificationMethodRemoved",
      "type": "event"
    },
    {
      "inputs": [
        {
          "internalType": "address",
          "name": "didIdentifier",
          "type": "address"
        },
        {
          "internalType": "string",
          "name": "controller",
          "type": "string"
        }
      ],
      "name": "addExternalController",
      "outputs": [],
      "stateMutability": "nonpayable",
      "type": "function"
    },
    {
      "inputs": [
        {
          "internalType": "address",
          "name": "didIdentifier",
          "type": "address"
        },
        {
          "internalType": "address",
          "name": "controller",
          "type": "address"
        }
      ],
      "name": "addNativeController",
      "outputs": [],
      "stateMutability": "nonpayable",
      "type": "function"
    },
    {
      "inputs": [
        {
          "internalType": "address",
          "name": "didIdentifier",
          "type": "address"
        },
        {
          "components": [
            {
              "internalType": "string",
              "name": "fragment",
              "type": "string"
            },
            {
              "internalType": "string",
              "name": "service_type",
              "type": "string"
            },
            {
              "internalType": "string",
              "name": "service_endpoint",
              "type": "string"
            }
          ],
          "internalType": "struct DIDRegistry.Service",
          "name": "service",
          "type": "tuple"
        }
      ],
      "name": "addService",
      "outputs": [],
      "stateMutability": "nonpayable",
      "type": "function"
    },
    {
      "inputs": [
        {
          "internalType": "address",
          "name": "didIdentifier",
          "type": "address"
        },
        {
          "components": [
            {
              "internalType": "string",
              "name": "fragment",
              "type": "string"
            },
            {
              "internalType": "uint16",
              "name": "flags",
              "type": "uint16"
            },
            {
              "internalType": "enum DIDRegistry.VerificationMethodType",
              "name": "methodType",
              "type": "uint8"
            },
            {
              "internalType": "bytes",
              "name": "keyData",
              "type": "bytes"
            }
          ],
          "internalType": "struct DIDRegistry.VerificationMethod",
          "name": "verificationMethod",
          "type": "tuple"
        }
      ],
      "name": "addVerificationMethod",
      "outputs": [],
      "stateMutability": "nonpayable",
      "type": "function"
    },
    {
      "inputs": [],
      "name": "initialize",
      "outputs": [],
      "stateMutability": "nonpayable",
      "type": "function"
    },
    {
      "inputs": [
        {
          "internalType": "address",
          "name": "didIdentifier",
          "type": "address"
        }
      ],
      "name": "initializeDidState",
      "outputs": [],
      "stateMutability": "nonpayable",
      "type": "function"
    },
    {
      "inputs": [
        {
          "internalType": "address",
          "name": "didIdentifier",
          "type": "address"
        }
      ],
      "name": "isGenerativeDidState",
      "outputs": [
        {
          "internalType": "bool",
          "name": "",
          "type": "bool"
        }
      ],
      "stateMutability": "view",
      "type": "function"
    },
    {
      "inputs": [],
      "name": "owner",
      "outputs": [
        {
          "internalType": "address",
          "name": "",
          "type": "address"
        }
      ],
      "stateMutability": "view",
      "type": "function"
    },
    {
      "inputs": [],
      "name": "proxiableUUID",
      "outputs": [
        {
          "internalType": "bytes32",
          "name": "",
          "type": "bytes32"
        }
      ],
      "stateMutability": "view",
      "type": "function"
    },
    {
      "inputs": [
        {
          "internalType": "address",
          "name": "didIdentifier",
          "type": "address"
        },
        {
          "internalType": "string",
          "name": "controller",
          "type": "string"
        }
      ],
      "name": "removeExternalController",
      "outputs": [
        {
          "internalType": "bool",
          "name": "",
          "type": "bool"
        }
      ],
      "stateMutability": "nonpayable",
      "type": "function"
    },
    {
      "inputs": [
        {
          "internalType": "address",
          "name": "didIdentifier",
          "type": "address"
        },
        {
          "internalType": "address",
          "name": "controller",
          "type": "address"
        }
      ],
      "name": "removeNativeController",
      "outputs": [
        {
          "internalType": "bool",
          "name": "",
          "type": "bool"
        }
      ],
      "stateMutability": "nonpayable",
      "type": "function"
    },
    {
      "inputs": [
        {
          "internalType": "address",
          "name": "didIdentifier",
          "type": "address"
        },
        {
          "internalType": "string",
          "name": "fragment",
          "type": "string"
        }
      ],
      "name": "removeService",
      "outputs": [
        {
          "internalType": "bool",
          "name": "",
          "type": "bool"
        }
      ],
      "stateMutability": "nonpayable",
      "type": "function"
    },
    {
      "inputs": [
        {
          "internalType": "address",
          "name": "didIdentifier",
          "type": "address"
        },
        {
          "internalType": "string",
          "name": "fragment",
          "type": "string"
        }
      ],
      "name": "removeVerificationMethod",
      "outputs": [
        {
          "internalType": "bool",
          "name": "",
          "type": "bool"
        }
      ],
      "stateMutability": "nonpayable",
      "type": "function"
    },
    {
      "inputs": [],
      "name": "renounceOwnership",
      "outputs": [],
      "stateMutability": "nonpayable",
      "type": "function"
    },
    {
      "inputs": [
        {
          "internalType": "address",
          "name": "didIdentifier",
          "type": "address"
        }
      ],
      "name": "resolveDidState",
      "outputs": [
        {
          "components": [
            {
              "components": [
                {
                  "internalType": "string",
                  "name": "fragment",
                  "type": "string"
                },
                {
                  "internalType": "uint16",
                  "name": "flags",
                  "type": "uint16"
                },
                {
                  "internalType": "enum DIDRegistry.VerificationMethodType",
                  "name": "methodType",
                  "type": "uint8"
                },
                {
                  "internalType": "bytes",
                  "name": "keyData",
                  "type": "bytes"
                }
              ],
              "internalType": "struct DIDRegistry.VerificationMethod[]",
              "name": "verificationMethods",
              "type": "tuple[]"
            },
            {
              "components": [
                {
                  "internalType": "string",
                  "name": "fragment",
                  "type": "string"
                },
                {
                  "internalType": "string",
                  "name": "service_type",
                  "type": "string"
                },
                {
                  "internalType": "string",
                  "name": "service_endpoint",
                  "type": "string"
                }
              ],
              "internalType": "struct DIDRegistry.Service[]",
              "name": "services",
              "type": "tuple[]"
            },
            {
              "internalType": "address[]",
              "name": "nativeControllers",
              "type": "address[]"
            },
            {
              "internalType": "string[]",
              "name": "externalControllers",
              "type": "string[]"
            }
          ],
          "internalType": "struct DIDRegistry.DidState",
          "name": "",
          "type": "tuple"
        }
      ],
      "stateMutability": "view",
      "type": "function"
    },
    {
      "inputs": [
        {
          "internalType": "address",
          "name": "newOwner",
          "type": "address"
        }
      ],
      "name": "transferOwnership",
      "outputs": [],
      "stateMutability": "nonpayable",
      "type": "function"
    },
    {
      "inputs": [
        {
          "internalType": "address",
          "name": "didIdentifier",
          "type": "address"
        },
        {
          "internalType": "string",
          "name": "fragment",
          "type": "string"
        },
        {
          "internalType": "uint16",
          "name": "flags",
          "type": "uint16"
        }
      ],
      "name": "updateVerificationMethodFlags",
      "outputs": [
        {
          "internalType": "bool",
          "name": "",
          "type": "bool"
        }
      ],
      "stateMutability": "nonpayable",
      "type": "function"
    },
    {
      "inputs": [
        {
          "internalType": "address",
          "name": "newImplementation",
          "type": "address"
        }
      ],
      "name": "upgradeTo",
      "outputs": [],
      "stateMutability": "nonpayable",
      "type": "function"
    },
    {
      "inputs": [
        {
          "internalType": "address",
          "name": "newImplementation",
          "type": "address"
        },
        {
          "internalType": "bytes",
          "name": "data",
          "type": "bytes"
        }
      ],
      "name": "upgradeToAndCall",
      "outputs": [],
      "stateMutability": "payable",
      "type": "function"
    }
  ],
  "bytecode": {
    "object": "0x60a0604052306080523480156200001557600080fd5b506200002062000026565b620000e7565b600054610100900460ff1615620000935760405162461bcd60e51b815260206004820152602760248201527f496e697469616c697a61626c653a20636f6e747261637420697320696e697469604482015266616c697a696e6760c81b606482015260840160405180910390fd5b60005460ff90811614620000e5576000805460ff191660ff9081179091556040519081527f7f26b83ff96e1f2b6a682f133852f6798a09c465da95921460cefb38474024989060200160405180910390a15b565b6080516144026200011f6000396000818161038f015281816103d801528181610477015281816104b7015261081501526144026000f3fe6080604052600436106101145760003560e01c8063767187aa116100a0578063b601162311610064578063b6011623146102e5578063c44d9e6314610305578063cc3cfb1514610325578063f2fde38b14610345578063fa3454f91461036557600080fd5b8063767187aa1461023b5780638129fc1c146102685780638da5cb5b1461027d578063969ef575146102a55780639d627c70146102c557600080fd5b80635533e7e0116100e75780635533e7e0146101a657806358cfec5f146101c65780635ab618ea146101e65780636940d8e614610206578063715018a61461022657600080fd5b80633659cfe6146101195780634f1ef2861461013b5780634f86df821461014e57806352d1902d14610183575b600080fd5b34801561012557600080fd5b50610139610134366004613479565b610385565b005b6101396101493660046134aa565b61046d565b34801561015a57600080fd5b5061016e61016936600461356c565b61053d565b60405190151581526020015b60405180910390f35b34801561018f57600080fd5b50610198610808565b60405190815260200161017a565b3480156101b257600080fd5b506101396101c136600461356c565b6108bb565b3480156101d257600080fd5b506101396101e13660046135e8565b610a0f565b3480156101f257600080fd5b5061016e6102013660046135e8565b610b60565b34801561021257600080fd5b5061013961022136600461363b565b610fc4565b34801561023257600080fd5b5061013961111a565b34801561024757600080fd5b5061025b610256366004613479565b61112e565b60405161017a9190613818565b34801561027457600080fd5b506101396116a7565b34801561028957600080fd5b506097546040516001600160a01b03909116815260200161017a565b3480156102b157600080fd5b5061016e6102c03660046135e8565b6117bf565b3480156102d157600080fd5b506101396102e0366004613939565b611ab8565b3480156102f157600080fd5b50610139610300366004613479565b611cbe565b34801561031157600080fd5b5061016e610320366004613993565b611ddc565b34801561033157600080fd5b5061016e6103403660046135e8565b6121b2565b34801561035157600080fd5b50610139610360366004613479565b6123c5565b34801561037157600080fd5b5061016e610380366004613479565b61243b565b6001600160a01b037f00000000000000000000000000000000000000000000000000000000000000001630036103d65760405162461bcd60e51b81526004016103cd906139f9565b60405180910390fd5b7f00000000000000000000000000000000000000000000000000000000000000006001600160a01b031661041f600080516020614386833981519152546001600160a01b031690565b6001600160a01b0316146104455760405162461bcd60e51b81526004016103cd90613a45565b61044e8161296f565b6040805160008082526020820190925261046a91839190612977565b50565b6001600160a01b037f00000000000000000000000000000000000000000000000000000000000000001630036104b55760405162461bcd60e51b81526004016103cd906139f9565b7f00000000000000000000000000000000000000000000000000000000000000006001600160a01b03166104fe600080516020614386833981519152546001600160a01b031690565b6001600160a01b0316146105245760405162461bcd60e51b81526004016103cd90613a45565b61052d8261296f565b61053982826001612977565b5050565b6000826105498161243b565b156105665760405162461bcd60e51b81526004016103cd90613a91565b836105718133612ae7565b61058d5760405162461bcd60e51b81526004016103cd90613aee565b836001600160a01b0316856001600160a01b0316036105fa5760405162461bcd60e51b815260206004820152602360248201527f43616e6e6f742072656d6f76652064656661756c7420617574686f72697479206044820152626b657960e81b60648201526084016103cd565b6106048585612ba7565b6106505760405162461bcd60e51b815260206004820181905260248201527f4e617469766520636f6e74726f6c6c657220646f6573206e6f7420657869737460448201526064016103cd565b6001600160a01b038516600090815260c960205260408120905b60028201548110156107f957856001600160a01b031682600201828154811061069557610695613b42565b6000918252602090912001546001600160a01b0316036107e7576002820180546106c190600190613b6e565b815481106106d1576106d1613b42565b6000918252602090912001546002830180546001600160a01b0390921691839081106106ff576106ff613b42565b9060005260206000200160006101000a8154816001600160a01b0302191690836001600160a01b031602179055508160020180548061074057610740613b81565b6001900381819060005260206000200160006101000a8154906001600160a01b0302191690559055866001600160a01b03167f9a55813d7cd2d2b9253e319e832bd00a0b8743de9d6d759dcb42293aebedb735876040516020016107b7919060609190911b6001600160601b031916815260140190565b60408051601f19818403018152908290526107d491600190613b97565b60405180910390a2600194505050610800565b806107f181613bbb565b91505061066a565b5060009350505b505092915050565b6000306001600160a01b037f000000000000000000000000000000000000000000000000000000000000000016146108a85760405162461bcd60e51b815260206004820152603860248201527f555550535570677261646561626c653a206d757374206e6f742062652063616c60448201527f6c6564207468726f7567682064656c656761746563616c6c000000000000000060648201526084016103cd565b5060008051602061438683398151915290565b816108c58161243b565b156108e25760405162461bcd60e51b81526004016103cd90613a91565b826108ed8133612ae7565b6109095760405162461bcd60e51b81526004016103cd90613aee565b6109138484612ba7565b156109605760405162461bcd60e51b815260206004820152601f60248201527f4e617469766520636f6e74726f6c6c657220616c72656164792065786973740060448201526064016103cd565b6001600160a01b03848116600081815260c96020908152604080832060020180546001810182559084529282902090920180546001600160a01b03191694881694909417909355516001600160601b0319606087901b1692810192909252907fee1ff2642b3d131f35b912f6a759192b10643f6bf93c6b9c732a2aa01ae199419060340160408051601f1981840301815290829052610a0191600190613b97565b60405180910390a250505050565b82610a198161243b565b15610a365760405162461bcd60e51b81526004016103cd90613a91565b83610a418133612ae7565b610a5d5760405162461bcd60e51b81526004016103cd90613aee565b610a68858585612c23565b15610abf5760405162461bcd60e51b815260206004820152602160248201527f45787465726e616c20636f6e74726f6c6c657220616c726561647920657869736044820152601d60fa1b60648201526084016103cd565b6001600160a01b038516600090815260c96020908152604082206003018054600181018255908352912001610af5848683613c71565b50846001600160a01b03167fee1ff2642b3d131f35b912f6a759192b10643f6bf93c6b9c732a2aa01ae199418585604051602001610b34929190613d2b565b60408051601f1981840301815290829052610b5191600090613b97565b60405180910390a25050505050565b600083610b6c8161243b565b15610b895760405162461bcd60e51b81526004016103cd90613a91565b84610b948133612ae7565b610bb05760405162461bcd60e51b81526004016103cd90613aee565b6001600160a01b038616600090815260c9602052604090208054600110610c5e5760405162461bcd60e51b815260206004820152605660248201527f43616e6e6f742072656d6f766520766572696669636174696f6e206d6574686f60448201527f642e20446964206d75737420616c776179732068617665206174206c65617374606482015275080c481d995c9a599a58d85d1a5bdb881b595d1a1bd960521b608482015260a4016103cd565b610c69878787612d60565b610c855760405162461bcd60e51b81526004016103cd90613d3b565b60005b8154811015610fb4576000826000018281548110610ca857610ca8613b42565b90600052602060002090600302019050610d84816000018054610cca90613bd4565b80601f0160208091040260200160405190810160405280929190818152602001828054610cf690613bd4565b8015610d435780601f10610d1857610100808354040283529160200191610d43565b820191906000526020600020905b815481529060010190602001808311610d2657829003601f168201915b505050505089898080601f016020809104026020016040519081016040528093929190818152602001838380828437600092019190915250612e2392505050565b15610fa1576001810154600090610da09061ffff166006612e8d565b90508015610e165760405162461bcd60e51b815260206004820152603b60248201527f43616e6e6f742072656d6f766520766572696669636174696f6e206d6574686f60448201527f642062656361757365206f662070726f74656374656420666c6167000000000060648201526084016103cd565b83548490610e2690600190613b6e565b81548110610e3657610e36613b42565b9060005260206000209060030201846000018481548110610e5957610e59613b42565b6000918252602090912060039091020180610e748382613d98565b5060018281018054918301805461ffff19811661ffff9094169384178255915460ff62010000918290041693919262ffffff191690911790838015610ebb57610ebb6136e0565b0217905550600281810190610ed290840182613d98565b5050845485915080610ee657610ee6613b81565b60008281526020812060001990920191600383020190610f06828261340f565b60018201805462ffffff19169055610f2260028301600061340f565b50509055610f2f8a612eb7565b610f4b5760405162461bcd60e51b81526004016103cd90613e6f565b604051610f59908390613ebf565b604051908190038120906001600160a01b038c16907f13aaf98b5e53496b16e04d43802aa43f08c53f27d33c40cf33b55ad473c3812490600090a36001965050505050610fbb565b5080610fac81613bbb565b915050610c88565b5060009350505b50509392505050565b81610fce8161243b565b15610feb5760405162461bcd60e51b81526004016103cd90613a91565b82610ff68133612ae7565b6110125760405162461bcd60e51b81526004016103cd90613aee565b611025846110208580613f35565b612d60565b156110845760405162461bcd60e51b815260206004820152602960248201527f467261676d656e7420616c7265616479206578697374206f6e20616e6f74686560448201526872207365727669636560b81b60648201526084016103cd565b6001600160a01b038416600090815260c9602090815260408220600190810180549182018155835291208491600302016110be8282613f7c565b506110cb90508380613f35565b6040516110d9929190613d2b565b604051908190038120906001600160a01b038616907fb33be4898b3eae72be50da48dea4d99c1e830cd6f31f9d534998c4fcaa91b62e90600090a350505050565b611122612f1d565b61112c6000612f77565b565b6111596040518060800160405280606081526020016060815260200160608152602001606081525090565b6111628261243b565b156111765761117082612fc9565b92915050565b6001600160a01b038216600090815260c9602090815260408083208151815460a09481028201850190935260808101838152909491938593919285929185015b8282101561134957838290600052602060002090600302016040518060800160405290816000820180546111e990613bd4565b80601f016020809104026020016040519081016040528092919081815260200182805461121590613bd4565b80156112625780601f1061123757610100808354040283529160200191611262565b820191906000526020600020905b81548152906001019060200180831161124557829003601f168201915b5050509183525050600182015461ffff8116602083015260409091019062010000900460ff168015611296576112966136e0565b80156112a4576112a46136e0565b81526020016002820180546112b890613bd4565b80601f01602080910402602001604051908101604052809291908181526020018280546112e490613bd4565b80156113315780601f1061130657610100808354040283529160200191611331565b820191906000526020600020905b81548152906001019060200180831161131457829003601f168201915b505050505081525050815260200190600101906111b6565b50505050815260200160018201805480602002602001604051908101604052809291908181526020016000905b8282101561155e57838290600052602060002090600302016040518060600160405290816000820180546113a990613bd4565b80601f01602080910402602001604051908101604052809291908181526020018280546113d590613bd4565b80156114225780601f106113f757610100808354040283529160200191611422565b820191906000526020600020905b81548152906001019060200180831161140557829003601f168201915b5050505050815260200160018201805461143b90613bd4565b80601f016020809104026020016040519081016040528092919081815260200182805461146790613bd4565b80156114b45780601f10611489576101008083540402835291602001916114b4565b820191906000526020600020905b81548152906001019060200180831161149757829003601f168201915b505050505081526020016002820180546114cd90613bd4565b80601f01602080910402602001604051908101604052809291908181526020018280546114f990613bd4565b80156115465780601f1061151b57610100808354040283529160200191611546565b820191906000526020600020905b81548152906001019060200180831161152957829003601f168201915b50505050508152505081526020019060010190611376565b505050508152602001600282018054806020026020016040519081016040528092919081815260200182805480156115bf57602002820191906000526020600020905b81546001600160a01b031681526001909101906020018083116115a1575b5050505050815260200160038201805480602002602001604051908101604052809291908181526020016000905b8282101561169957838290600052602060002001805461160c90613bd4565b80601f016020809104026020016040519081016040528092919081815260200182805461163890613bd4565b80156116855780601f1061165a57610100808354040283529160200191611685565b820191906000526020600020905b81548152906001019060200180831161166857829003601f168201915b5050505050815260200190600101906115ed565b505050915250909392505050565b600054610100900460ff16158080156116c75750600054600160ff909116105b806116e15750303b1580156116e1575060005460ff166001145b6117445760405162461bcd60e51b815260206004820152602e60248201527f496e697469616c697a61626c653a20636f6e747261637420697320616c72656160448201526d191e481a5b9a5d1a585b1a5e995960921b60648201526084016103cd565b6000805460ff191660011790558015611767576000805461ff0019166101001790555b61176f6130a1565b6117776130d0565b801561046a576000805461ff0019169055604051600181527f7f26b83ff96e1f2b6a682f133852f6798a09c465da95921460cefb38474024989060200160405180910390a150565b6000836117cb8161243b565b156117e85760405162461bcd60e51b81526004016103cd90613a91565b846117f38133612ae7565b61180f5760405162461bcd60e51b81526004016103cd90613aee565b61181a868686612d60565b61185b5760405162461bcd60e51b8152602060048201526012602482015271119c9859db595b9d081b9bdd08199bdd5b9960721b60448201526064016103cd565b6001600160a01b038616600090815260c960205260408120905b6001820154811015610fb45761196f82600101828154811061189957611899613b42565b906000526020600020906003020160000180546118b590613bd4565b80601f01602080910402602001604051908101604052809291908181526020018280546118e190613bd4565b801561192e5780601f106119035761010080835404028352916020019161192e565b820191906000526020600020905b81548152906001019060200180831161191157829003601f168201915b505050505088888080601f016020809104026020016040519081016040528093929190818152602001838380828437600092019190915250612e2392505050565b15611aa65760018083018054909161198691613b6e565b8154811061199657611996613b42565b90600052602060002090600302018260010182815481106119b9576119b9613b42565b60009182526020909120600390910201806119d48382613d98565b506001818101906119e790840182613d98565b506002818101906119fa90840182613d98565b50505060018201805480611a1057611a10613b81565b60008281526020812060001990920191600383020190611a30828261340f565b611a3e60018301600061340f565b611a4c60028301600061340f565b505090558686604051611a60929190613d2b565b604051908190038120906001600160a01b038a16907f68026479739e3662c0651578523384b94455e79bfb701ce111a3164591ceba7390600090a3600194505050610fbb565b80611ab081613bbb565b915050611875565b81611ac28161243b565b15611adf5760405162461bcd60e51b81526004016103cd90613a91565b82611aea8133612ae7565b611b065760405162461bcd60e51b81526004016103cd90613aee565b611b14846110208580613f35565b15611b5a5760405162461bcd60e51b8152602060048201526016602482015275119c9859db595b9d08185b1c9958591e48195e1a5cdd60521b60448201526064016103cd565b6000611b76611b6f6040860160208701614076565b6005612e8d565b90506000611b94611b8d6040870160208801614076565b6006612e8d565b9050600082158015611ba4575081155b905080611c285760405162461bcd60e51b815260206004820152604660248201527f43616e6e6f742061646420766572696669636174696f6e206d6574686f64207760448201527f697468206f776e6572736869705f70726f6f66206f722070726f74656374656460648201526520666c61677360d01b608482015260a4016103cd565b6001600160a01b038716600090815260c960209081526040822080546001810182559083529120879160030201611c5f82826140e9565b50611c6c90508680613f35565b604051611c7a929190613d2b565b604051908190038120906001600160a01b038916907f2a2c19e8d9546d05ca1cb9bab27129d2ca2785f6e25f655c8a8c1f98e06f163590600090a350505050505050565b611cc78161243b565b611d135760405162461bcd60e51b815260206004820152601760248201527f44696420737461746520616c726561647920657869737400000000000000000060448201526064016103cd565b6000611d1e82612fc9565b6001600160a01b038316600090815260c960205260408120825180519394509092909190611d4e57611d4e613b42565b60209081029190910181015182546001810184556000938452919092208251600390920201908190611d8090826141ee565b50602082015160018201805461ffff90921661ffff1983168117825560408501519262ffffff19161762010000838015611dbc57611dbc6136e0565b021790555060608201516002820190611dd590826141ee565b5050505050565b600084611de88161243b565b15611e055760405162461bcd60e51b81526004016103cd90613a91565b85611e108133612ae7565b611e2c5760405162461bcd60e51b81526004016103cd90613aee565b611e37878787612d60565b611e535760405162461bcd60e51b81526004016103cd90613d3b565b6001600160a01b038716600090815260c960205260408120905b81548110156121a1576000826000018281548110611e8d57611e8d613b42565b90600052602060002090600302019050611f69816000018054611eaf90613bd4565b80601f0160208091040260200160405190810160405280929190818152602001828054611edb90613bd4565b8015611f285780601f10611efd57610100808354040283529160200191611f28565b820191906000526020600020905b815481529060010190602001808311611f0b57829003601f168201915b50505050508a8a8080601f016020809104026020016040519081016040528093929190818152602001838380828437600092019190915250612e2392505050565b1561218e576000611f7b886005612e8d565b600183015490151590611f939061ffff166005612e8d565b1515141590506000611fa6896006612e8d565b600184015490151590611fbe9061ffff166006612e8d565b1515141590508180611fcd5750805b1561207b5733611fdf600285016142a0565b60601c1461207b5760405162461bcd60e51b815260206004820152605960248201527f4f6e6c792074686520766572696669636174696f6e206d6574686f642061757460448201527f686f72697479206b65792063616e2073657420746865206f776e65727368697060648201527f2070726f6f66206f722070726f74656374656420666c61677300000000000000608482015260a4016103cd565b600085600001858154811061209257612092613b42565b6000918252602090912060016003909202010154865461ffff90911691508a908790879081106120c4576120c4613b42565b906000526020600020906003020160010160006101000a81548161ffff021916908361ffff1602179055506120f88d612eb7565b6121145760405162461bcd60e51b81526004016103cd90613e6f565b8b8b604051612124929190613d2b565b60405180910390208d6001600160a01b03167f41b06123da5d53e60f2b1756bcc6bf2c59195904c2f3be74c903cd2ef0655542838d60405161217792919061ffff92831681529116602082015260400190565b60405180910390a3600198505050505050506121a8565b508061219981613bbb565b915050611e6d565b5060009350505b5050949350505050565b6000836121be8161243b565b156121db5760405162461bcd60e51b81526004016103cd90613a91565b846121e68133612ae7565b6122025760405162461bcd60e51b81526004016103cd90613aee565b61220d868686612c23565b6122645760405162461bcd60e51b815260206004820152602260248201527f45787465726e616c20636f6e74726f6c6c657220646f6573206e6f74206578696044820152611cdd60f21b60648201526084016103cd565b6001600160a01b038616600090815260c960205260408120905b6003820154811015610fb4576122b78260030182815481106122a2576122a2613b42565b9060005260206000200180546118b590613bd4565b156123b3576003820180546122ce90600190613b6e565b815481106122de576122de613b42565b906000526020600020018260030182815481106122fd576122fd613b42565b9060005260206000200190816123139190613d98565b508160030180548061232757612327613b81565b600190038181906000526020600020016000612343919061340f565b9055876001600160a01b03167f9a55813d7cd2d2b9253e319e832bd00a0b8743de9d6d759dcb42293aebedb7358888604051602001612383929190613d2b565b60408051601f19818403018152908290526123a091600090613b97565b60405180910390a2600194505050610fbb565b806123bd81613bbb565b91505061227e565b6123cd612f1d565b6001600160a01b0381166124325760405162461bcd60e51b815260206004820152602660248201527f4f776e61626c653a206e6577206f776e657220697320746865207a65726f206160448201526564647265737360d01b60648201526084016103cd565b61046a81612f77565b6001600160a01b038116600090815260c9602090815260408083208151815460a09481028201850190935260808101838152859491938492849190879085015b8282101561260e57838290600052602060002090600302016040518060800160405290816000820180546124ae90613bd4565b80601f01602080910402602001604051908101604052809291908181526020018280546124da90613bd4565b80156125275780601f106124fc57610100808354040283529160200191612527565b820191906000526020600020905b81548152906001019060200180831161250a57829003601f168201915b5050509183525050600182015461ffff8116602083015260409091019062010000900460ff16801561255b5761255b6136e0565b8015612569576125696136e0565b815260200160028201805461257d90613bd4565b80601f01602080910402602001604051908101604052809291908181526020018280546125a990613bd4565b80156125f65780601f106125cb576101008083540402835291602001916125f6565b820191906000526020600020905b8154815290600101906020018083116125d957829003601f168201915b5050505050815250508152602001906001019061247b565b50505050815260200160018201805480602002602001604051908101604052809291908181526020016000905b82821015612823578382906000526020600020906003020160405180606001604052908160008201805461266e90613bd4565b80601f016020809104026020016040519081016040528092919081815260200182805461269a90613bd4565b80156126e75780601f106126bc576101008083540402835291602001916126e7565b820191906000526020600020905b8154815290600101906020018083116126ca57829003601f168201915b5050505050815260200160018201805461270090613bd4565b80601f016020809104026020016040519081016040528092919081815260200182805461272c90613bd4565b80156127795780601f1061274e57610100808354040283529160200191612779565b820191906000526020600020905b81548152906001019060200180831161275c57829003601f168201915b5050505050815260200160028201805461279290613bd4565b80601f01602080910402602001604051908101604052809291908181526020018280546127be90613bd4565b801561280b5780601f106127e05761010080835404028352916020019161280b565b820191906000526020600020905b8154815290600101906020018083116127ee57829003601f168201915b5050505050815250508152602001906001019061263b565b5050505081526020016002820180548060200260200160405190810160405280929190818152602001828054801561288457602002820191906000526020600020905b81546001600160a01b03168152600190910190602001808311612866575b5050505050815260200160038201805480602002602001604051908101604052809291908181526020016000905b8282101561295e5783829060005260206000200180546128d190613bd4565b80601f01602080910402602001604051908101604052809291908181526020018280546128fd90613bd4565b801561294a5780601f1061291f5761010080835404028352916020019161294a565b820191906000526020600020905b81548152906001019060200180831161292d57829003601f168201915b5050505050815260200190600101906128b2565b505050915250505151159392505050565b61046a612f1d565b7f4910fdfa16fed3260ed0e7147f7cc6da11a60208b5b9406d12a635614ffd91435460ff16156129af576129aa836130f7565b505050565b826001600160a01b03166352d1902d6040518163ffffffff1660e01b8152600401602060405180830381865afa925050508015612a09575060408051601f3d908101601f19168201909252612a06918101906142f2565b60015b612a6c5760405162461bcd60e51b815260206004820152602e60248201527f45524331393637557067726164653a206e657720696d706c656d656e7461746960448201526d6f6e206973206e6f74205555505360901b60648201526084016103cd565b6000805160206143868339815191528114612adb5760405162461bcd60e51b815260206004820152602960248201527f45524331393637557067726164653a20756e737570706f727465642070726f786044820152681a58589b195555525160ba1b60648201526084016103cd565b506129aa838383613193565b6001600160a01b038216600090815260c960205260408120815b8154811015612b9c57836001600160a01b0316826000018281548110612b2957612b29613b42565b9060005260206000209060030201600201612b43906142a0565b60601c03612b8a57612b81826000018281548110612b6357612b63613b42565b600091825260209091206003918202016001015461ffff1690612e8d565b92505050611170565b80612b9481613bbb565b915050612b01565b506000949350505050565b6001600160a01b038216600090815260c960205260408120815b6002820154811015612b9c57836001600160a01b0316826002018281548110612bec57612bec613b42565b6000918252602090912001546001600160a01b031603612c1157600192505050611170565b80612c1b81613bbb565b915050612bc1565b6001600160a01b038316600090815260c960205260408120815b6003820154811015612d5257612d30826003018281548110612c6157612c61613b42565b906000526020600020018054612c7690613bd4565b80601f0160208091040260200160405190810160405280929190818152602001828054612ca290613bd4565b8015612cef5780601f10612cc457610100808354040283529160200191612cef565b820191906000526020600020905b815481529060010190602001808311612cd257829003601f168201915b505050505086868080601f016020809104026020016040519081016040528093929190818152602001838380828437600092019190915250612e2392505050565b15612d4057600192505050612d59565b80612d4a81613bbb565b915050612c3d565b5060009150505b9392505050565b6001600160a01b038316600090815260c960205260408120815b6001820154811015612ddc57612dba826001018281548110612d9e57612d9e613b42565b90600052602060002090600302016000018054612c7690613bd4565b15612dca57600192505050612d59565b80612dd481613bbb565b915050612d7a565b5060005b8154811015612d5257612e01826000018281548110612d9e57612d9e613b42565b15612e1157600192505050612d59565b80612e1b81613bbb565b915050612de0565b60008151835114612e3657506000611170565b81604051602001612e47919061430b565b6040516020818303038152906040528051906020012083604051602001612e6e919061430b565b6040516020818303038152906040528051906020012014905092915050565b6000816006811115612ea157612ea16136e0565b600161ffff9182161b8416161515905092915050565b6001600160a01b038116600090815260c960205260408120815b8154811015612f1357612ef2826000018281548110612b6357612b63613b42565b15612f01575060019392505050565b80612f0b81613bbb565b915050612ed1565b5060009392505050565b6097546001600160a01b0316331461112c5760405162461bcd60e51b815260206004820181905260248201527f4f776e61626c653a2063616c6c6572206973206e6f7420746865206f776e657260448201526064016103cd565b609780546001600160a01b038381166001600160a01b0319831681179093556040519116919082907f8be0079c531659141344cd1fd0a4f28419497f9722a3daafe3b4186f6b6457e090600090a35050565b612ff46040518060800160405280606081526020016060815260200160608152602001606081525090565b61301f6040518060800160405280606081526020016060815260200160608152602001606081525090565b60408051600180825281830190925290816020015b613060604080516080810182526060815260006020820181905290918201908152602001606081525090565b815260200190600190039081613034575050815261307d836131be565b8151805160009061309057613090613b42565b602090810291909101015292915050565b600054610100900460ff166130c85760405162461bcd60e51b81526004016103cd90614327565b61112c61325c565b600054610100900460ff1661112c5760405162461bcd60e51b81526004016103cd90614327565b6001600160a01b0381163b6131645760405162461bcd60e51b815260206004820152602d60248201527f455243313936373a206e657720696d706c656d656e746174696f6e206973206e60448201526c1bdd08184818dbdb9d1c9858dd609a1b60648201526084016103cd565b60008051602061438683398151915280546001600160a01b0319166001600160a01b0392909216919091179055565b61319c8361328c565b6000825111806131a95750805b156129aa576131b883836132cc565b50505050565b6131ea604080516080810182526060815260006020820181905290918201908152602001606081525090565b6040805160c08101825260076080820190815266191959985d5b1d60ca1b60a08301528152606860208201529081016000815260200183604051602001613244919060609190911b6001600160601b031916815260140190565b60408051601f19818403018152919052905292915050565b600054610100900460ff166132835760405162461bcd60e51b81526004016103cd90614327565b61112c33612f77565b613295816130f7565b6040516001600160a01b038216907fbc7cd75a20ee27fd9adebab32041f755214dbc6bffa90cc0225b39da2e5c2d3b90600090a250565b6060612d5983836040518060600160405280602781526020016143a6602791396060600080856001600160a01b031685604051613309919061430b565b600060405180830381855af49150503d8060008114613344576040519150601f19603f3d011682016040523d82523d6000602084013e613349565b606091505b509150915061335a86838387613364565b9695505050505050565b606083156133d35782516000036133cc576001600160a01b0385163b6133cc5760405162461bcd60e51b815260206004820152601d60248201527f416464726573733a2063616c6c20746f206e6f6e2d636f6e747261637400000060448201526064016103cd565b50816133dd565b6133dd83836133e5565b949350505050565b8151156133f55781518083602001fd5b8060405162461bcd60e51b81526004016103cd9190614372565b50805461341b90613bd4565b6000825580601f1061342b575050565b601f01602090049060005260206000209081019061046a91905b808211156134595760008155600101613445565b5090565b80356001600160a01b038116811461347457600080fd5b919050565b60006020828403121561348b57600080fd5b612d598261345d565b634e487b7160e01b600052604160045260246000fd5b600080604083850312156134bd57600080fd5b6134c68361345d565b9150602083013567ffffffffffffffff808211156134e357600080fd5b818501915085601f8301126134f757600080fd5b81358181111561350957613509613494565b604051601f8201601f19908116603f0116810190838211818310171561353157613531613494565b8160405282815288602084870101111561354a57600080fd5b8260208601602083013760006020848301015280955050505050509250929050565b6000806040838503121561357f57600080fd5b6135888361345d565b91506135966020840161345d565b90509250929050565b60008083601f8401126135b157600080fd5b50813567ffffffffffffffff8111156135c957600080fd5b6020830191508360208285010111156135e157600080fd5b9250929050565b6000806000604084860312156135fd57600080fd5b6136068461345d565b9250602084013567ffffffffffffffff81111561362257600080fd5b61362e8682870161359f565b9497909650939450505050565b6000806040838503121561364e57600080fd5b6136578361345d565b9150602083013567ffffffffffffffff81111561367357600080fd5b83016060818603121561368557600080fd5b809150509250929050565b60005b838110156136ab578181015183820152602001613693565b50506000910152565b600081518084526136cc816020860160208601613690565b601f01601f19169290920160200192915050565b634e487b7160e01b600052602160045260246000fd5b600081518084526020808501808196508360051b8101915082860160005b8581101561377f578284038952815160608151818752613736828801826136b4565b915050868201518682038888015261374e82826136b4565b9150506040808301519250868203818801525061376b81836136b4565b9a87019a9550505090840190600101613714565b5091979650505050505050565b600081518084526020808501945080840160005b838110156137c55781516001600160a01b0316875295820195908201906001016137a0565b509495945050505050565b600081518084526020808501808196508360051b8101915082860160005b8581101561377f5782840389526138068483516136b4565b988501989350908401906001016137ee565b6000602080835260a0830184516080808487015282825180855260c08801915060c08160051b890101945085840193506000805b828110156138d25789870360bf1901845285518051868952613870878a01826136b4565b905061ffff8a830151168a8a0152604080830151600181106138a057634e487b7160e01b86526021600452602486fd5b908a0152606091820151898203928a01929092526138be81836136b4565b98505050948701949287019260010161384c565b50505050838701519350601f199150818684030160408701526138f583856136f6565b93506040870151925081868503016060870152613912848461378c565b935060608701519250818685030181870152505061393082826137d0565b95945050505050565b6000806040838503121561394c57600080fd5b6139558361345d565b9150602083013567ffffffffffffffff81111561397157600080fd5b83016080818603121561368557600080fd5b61ffff8116811461046a57600080fd5b600080600080606085870312156139a957600080fd5b6139b28561345d565b9350602085013567ffffffffffffffff8111156139ce57600080fd5b6139da8782880161359f565b90945092505060408501356139ee81613983565b939692955090935050565b6020808252602c908201527f46756e6374696f6e206d7573742062652063616c6c6564207468726f7567682060408201526b19195b1959d85d1958d85b1b60a21b606082015260800190565b6020808252602c908201527f46756e6374696f6e206d7573742062652063616c6c6564207468726f7567682060408201526b6163746976652070726f787960a01b606082015260800190565b60208082526037908201527f4f6e6c79206e6f6e2d67656e657261746976652064696453746174657320617260408201527f6520616c6c6f77656420666f7220746869732063616c6c000000000000000000606082015260800190565b60208082526034908201527f4d6573736167652073656e646572206973206e6f7420616e20617574686f72696040820152731e9959081d5cd95c881bd9881d1a1a5cc8191a5960621b606082015260800190565b634e487b7160e01b600052603260045260246000fd5b634e487b7160e01b600052601160045260246000fd5b8181038181111561117057611170613b58565b634e487b7160e01b600052603160045260246000fd5b604081526000613baa60408301856136b4565b905082151560208301529392505050565b600060018201613bcd57613bcd613b58565b5060010190565b600181811c90821680613be857607f821691505b602082108103613c0857634e487b7160e01b600052602260045260246000fd5b50919050565b601f8211156129aa57600081815260208120601f850160051c81016020861015613c355750805b601f850160051c820191505b81811015613c5457828155600101613c41565b505050505050565b600019600383901b1c191660019190911b1790565b67ffffffffffffffff831115613c8957613c89613494565b613c9d83613c978354613bd4565b83613c0e565b6000601f841160018114613ccb5760008515613cb95750838201355b613cc38682613c5c565b845550611dd5565b600083815260209020601f19861690835b82811015613cfc5786850135825560209485019460019092019101613cdc565b5086821015613d195760001960f88860031b161c19848701351681555b505060018560011b0183555050505050565b8183823760009101908152919050565b6020808252603e908201527f467261676d656e7420646f6573206e6f74206d6174636820616e79207665726960408201527f6669636174696f6e206d6574686f647320776974682074686973206469640000606082015260800190565b818103613da3575050565b613dad8254613bd4565b67ffffffffffffffff811115613dc557613dc5613494565b613dd981613dd38454613bd4565b84613c0e565b6000601f821160018114613e075760008315613df55750848201545b613dff8482613c5c565b855550611dd5565b600085815260209020601f19841690600086815260209020845b83811015613e415782860154825560019586019590910190602001613e21565b5085831015613e5f5781850154600019600388901b60f8161c191681555b5050505050600190811b01905550565b60208082526030908201527f43616e6e6f742072656d6f7665206c61737420617574686f726974792076657260408201526f1a599a58d85d1a5bdb881b595d1a1bd960821b606082015260800190565b6000808354613ecd81613bd4565b60018281168015613ee55760018114613efa57613f29565b60ff1984168752821515830287019450613f29565b8760005260208060002060005b85811015613f205781548a820152908401908201613f07565b50505082870194505b50929695505050505050565b6000808335601e19843603018112613f4c57600080fd5b83018035915067ffffffffffffffff821115613f6757600080fd5b6020019150368190038213156135e157600080fd5b613f868283613f35565b67ffffffffffffffff811115613f9e57613f9e613494565b613fb281613fac8554613bd4565b85613c0e565b6000601f821160018114613fe05760008315613fce5750838201355b613fd88482613c5c565b86555061403a565b600085815260209020601f19841690835b828110156140115786850135825560209485019460019092019101613ff1565b508482101561402e5760001960f88660031b161c19848701351681555b505060018360011b0185555b5050505061404b6020830183613f35565b614059818360018601613c71565b50506140686040830183613f35565b6131b8818360028601613c71565b60006020828403121561408857600080fd5b8135612d5981613983565b6000813561117081613983565b600081356001811061117057600080fd5b600182106140cf57634e487b7160e01b600052602160045260246000fd5b805462ff00008360101b1662ff0000198216178255505050565b6140f38283613f35565b67ffffffffffffffff81111561410b5761410b613494565b61411981613fac8554613bd4565b6000601f82116001811461414757600083156141355750838201355b61413f8482613c5c565b8655506141a1565b600085815260209020601f19841690835b828110156141785786850135825560209485019460019092019101614158565b50848210156141955760001960f88660031b161c19848701351681555b505060018360011b0185555b50505050600181016141cb6141b860208501614093565b825461ffff191661ffff91909116178255565b6141e06141da604085016140a0565b826140b1565b506140686060830183613f35565b815167ffffffffffffffff81111561420857614208613494565b61421681613dd38454613bd4565b602080601f83116001811461424557600084156142335750858301515b61423d8582613c5c565b865550613c54565b600085815260208120601f198616915b8281101561427457888601518255948401946001909101908401614255565b5085821015613e5f57939096015160001960f8600387901b161c19169092555050600190811b01905550565b60006142ac8254613bd4565b82601f8211156142c25783600052602060002090505b546001600160601b0319808216935060148310156142ea5780818460140360031b1b83161693505b505050919050565b60006020828403121561430457600080fd5b5051919050565b6000825161431d818460208701613690565b9190910192915050565b6020808252602b908201527f496e697469616c697a61626c653a20636f6e7472616374206973206e6f74206960408201526a6e697469616c697a696e6760a81b606082015260800190565b602081526000612d5960208301846136b456fe360894a13ba1a3210667c828492db98dca3e2076cc3735a920a3ca505d382bbc416464726573733a206c6f772d6c6576656c2064656c65676174652063616c6c206661696c6564a2646970667358221220f0b745fb26ac1f96ee369c8cbeec71b09d7eed98d61d0d30e1ba471a4349c57964736f6c63430008130033",
    "linkReferences": {}
  },
  "methodIdentifiers": {
    "addExternalController(address,string)": "58cfec5f",
    "addNativeController(address,address)": "5533e7e0",
    "addService(address,(string,string,string))": "6940d8e6",
    "addVerificationMethod(address,(string,uint16,uint8,bytes))": "9d627c70",
    "initialize()": "8129fc1c",
    "initializeDidState(address)": "b6011623",
    "isGenerativeDidState(address)": "fa3454f9",
    "owner()": "8da5cb5b",
    "proxiableUUID()": "52d1902d",
    "removeExternalController(address,string)": "cc3cfb15",
    "removeNativeController(address,address)": "4f86df82",
    "removeService(address,string)": "969ef575",
    "removeVerificationMethod(address,string)": "5ab618ea",
    "renounceOwnership()": "715018a6",
    "resolveDidState(address)": "767187aa",
    "transferOwnership(address)": "f2fde38b",
    "updateVerificationMethodFlags(address,string,uint16)": "c44d9e63",
    "upgradeTo(address)": "3659cfe6",
    "upgradeToAndCall(address,bytes)": "4f1ef286"
  },
  "id": 35
}